{
  "address": "0xf485d7478cCeA7ff7FDbE78957E73216CADBaC60",
  "abi": [
    {
      "inputs": [
        {
          "internalType": "contract AggregatorV3Interface",
          "name": "aggregatorArg",
          "type": "address"
        }
      ],
      "stateMutability": "nonpayable",
      "type": "constructor"
    },
    {
      "inputs": [],
      "name": "aggregator",
      "outputs": [
        {
          "internalType": "contract AggregatorV3Interface",
          "name": "",
          "type": "address"
        }
      ],
      "stateMutability": "view",
      "type": "function"
    },
    {
      "inputs": [],
      "name": "decimals",
      "outputs": [
        {
          "internalType": "uint8",
          "name": "",
          "type": "uint8"
        }
      ],
      "stateMutability": "view",
      "type": "function"
    },
    {
      "inputs": [],
      "name": "getPrice",
      "outputs": [
        {
          "internalType": "uint256",
          "name": "",
          "type": "uint256"
        }
      ],
      "stateMutability": "view",
      "type": "function"
    }
  ],
  "transactionHash": "0x3479ce09737b1d19b0cf47bd96951fc4e57d668b35bbec1a5a172c3146b41446",
  "args": [
    "0x7f8847242a530E809E17bF2DA5D2f9d2c4A43261"
  ],
  "numDeployments": 1,
  "solcInputHash": "631dd256ffee1a5f5986843192f9d89c",
  "bytecode": "0x60a060405234801561001057600080fd5b5060405161062b38038061062b83398101604081905261002f916100bb565b61004b816001600160a01b03166100ac60201b6101561760201c565b61009b5760405162461bcd60e51b815260206004820152601f60248201527f4350465f433a206167672061646472657373206e6f7420636f6e747261637400604482015260640160405180910390fd5b6001600160a01b03166080526100eb565b6001600160a01b03163b151590565b6000602082840312156100cd57600080fd5b81516001600160a01b03811681146100e457600080fd5b9392505050565b60805161050b61012060003960008181604b0152818160be01528181610170015281816102c8015261037a015261050b6000f3fe608060405234801561001057600080fd5b50600436106100415760003560e01c8063245a7bfc14610046578063313ce5671461008a57806398d5fdca146100a4575b600080fd5b61006d7f000000000000000000000000000000000000000000000000000000000000000081565b6040516001600160a01b0390911681526020015b60405180910390f35b6100926100ba565b60405160ff9091168152602001610081565b6100ac610143565b604051908152602001610081565b60007f00000000000000000000000000000000000000000000000000000000000000006001600160a01b031663313ce5676040518163ffffffff1660e01b8152600401602060405180830381865afa15801561011a573d6000803e3d6000fd5b505050506040513d601f19601f8201168201806040525081019061013e9190610409565b905090565b60008061014e610165565b509392505050565b6001600160a01b03163b151590565b6000806000806000807f00000000000000000000000000000000000000000000000000000000000000006001600160a01b031663feaf968c6040518163ffffffff1660e01b815260040160a060405180830381865afa1580156101cc573d6000803e3d6000fd5b505050506040513d601f19601f820116820180604052508101906101f0919061044f565b509350509250925081945060008212156102295761020d83610235565b61022061021b60018561049f565b610295565b90965090935090505b91959394509092915050565b6000816001600160501b0316116102925760405162461bcd60e51b815260206004820152601a60248201527f4350465f5245483a206e6f20656e6f75676820686973746f7279000000000000604482015260640160405180910390fd5b50565b604051639a6fc8f560e01b81526001600160501b0382166004820152600090819081908190819081906001600160a01b037f00000000000000000000000000000000000000000000000000000000000000001690639a6fc8f59060240160a060405180830381865afa15801561030f573d6000803e3d6000fd5b505050506040513d601f19601f82011682018060405250810190610333919061044f565b50935050925092505b60008212156103fc5761034e83610235565b61035960018461049f565b604051639a6fc8f560e01b81526001600160501b03821660048201529093507f00000000000000000000000000000000000000000000000000000000000000006001600160a01b031690639a6fc8f59060240160a060405180830381865afa1580156103c9573d6000803e3d6000fd5b505050506040513d601f19601f820116820180604052508101906103ed919061044f565b5091945090925061033c915050565b9196909550909350915050565b60006020828403121561041b57600080fd5b815160ff8116811461042c57600080fd5b9392505050565b80516001600160501b038116811461044a57600080fd5b919050565b600080600080600060a0868803121561046757600080fd5b61047086610433565b945060208601519350604086015192506060860151915061049360808701610433565b90509295509295909350565b60006001600160501b03838116908316818110156104cd57634e487b7160e01b600052601160045260246000fd5b03939250505056fea26469706673582212201c69c32f0dce46f66e516b69b14af8cc19f3621ea0bc3c965c3652e64f1325aa64736f6c634300080c0033",
  "devdoc": {
    "kind": "dev",
    "methods": {
      "getPrice()": {
        "details": "Returns the index price of the token."
      }
    },
    "version": 1
  },
  "userdoc": {
    "kind": "user",
    "methods": {},
    "version": 1
  },
  "storageLayout": {
    "storage": [],
    "types": null
  }
}